:100000000A128A110C280534FE00030EF0000A08BB
:10001000F1000A168A11E0290A128A110F288313A7
:10002000ED30FD001D30FE00D730FF00D0308400E1
:100030000A168A159E250A128A110A128A150020AC
:100040000A128A11DD000A128A1103200A128A118B
:10005000FB00A0308400D0300A168A1511250A1240
:100060008A114A3084005D300A168A1511250A1259
:100070008A11FA0183010A128A113E280A168A158A
:10008000C6270A128A116C30F5009130F600003054
:100090000A168A1536270A128A1183160313660870
:1000A000831603179C008316031367088316031730
:1000B0009D00831603136808831603179E00A00192
:1000C0001130A20090308400D03083120313C60098
:1000D0000408C7000C30C8004608840083130008D9
:1000E000C900C60A47088400831749088000C70A68
:1000F000C80B6C28831603179F0183120313A401F6
:100100009C300A168A11CC240A128A110B308316ED
:100110000317220603198D288E28942812302206F0
:10012000031D932894289E2801300A168A119025D1
:100130000A128A1183160317A300A72800300A1693
:100140008A1190250A128A1183160317A3003E30E4
:100150002306031DAC28AD28C4287530F200913069
:10016000F3009C300A168A1571260A128A1183162A
:100170000317200883120313A4009C300A168A1167
:10018000CC240A128A11F22A3D302306031DC92805
:10019000CA28F52806301F020318CF28D028F528D2
:1001A0001F0883120313C6004607903E840083177E
:1001B0000008F200840A00088403F3009C300A1649
:1001C0008A1571260A128A110130FF007F088316F2
:1001D00003179F07200883120313A4009C300A16FC
:1001E0008A11CC240A128A11F22A3B302306031DFD
:1001F000FA28FB2823291F080319FF28002923298F
:1002000001309F021F0883120313C6004607903E69
:10021000840083170008F200840A00088403F300B6
:100220009C300A168A1571260A128A118316031742
:10023000200883120313A4009C300A168A11CC24D0
:100240000A128A11F22A373023060319282929298C
:100250002F292F302306031D2E292F295D29113028
:100260002206031D342935295D291230A2000A1601
:100270008A1564250A128A11A530F6009030F7001D
:100280008130F8000A128A1501200A128A11F2013F
:10029000C4300A168A1530260A128A11F2010F306C
:1002A0000A168A1530260A128A110330831603179C
:1002B000A100831203131215F22AF22A20088312D6
:1002C0000313A2009C300A168A116B230A128A11AA
:1002D0000E2B83120313121584290A168A1564251E
:1002E0000A128A11113083160317A200F2010C3092
:1002F0000A168A1530260A128A1183120313121164
:100300000E2B1330A2000E2B831603172108831225
:100310000313A2008316031723080A128A15552413
:100320000A128A1183160317A200023A03196D29D3
:10033000073A031981290E2B0A168A1564250A1219
:100340008A11113083160317A2000E2B0A168A1584
:1003500064250A128A11073083160317A2000E2B98
:100360000A168A1564250A128A11083083160317A3
:10037000A2000E2B0A168A1564250A128A1109306A
:1003800083160317A2006830F6009030F700803023
:10039000F8000A128A1501200A128A110E2B0A1679
:1003A0008A1564250A128A110530F6009130F7008B
:1003B0008230F8000A128A1501200A128A112730A9
:1003C00083120313C8000D30C7002530C600C60BCA
:1003D000E729C70BE729C80BE729EE290A3083165E
:1003E0000317A2000A168A1115230A128A11F201B4
:1003F000C9300A168A1530260A128A11F2010F3006
:100400000A168A1530260A128A113F300A128A15F6
:1004100024260A128A110E2B0A168A1564250A123E
:100420008A110B3083160317A200A530F600903016
:10043000F7008130F8000A128A1501200A128A1189
:10044000F201C4300A168A1530260A128A11F20106
:100450000F300A168A1530260A128A110E2B21082F
:1004600083120313A2008316031723080A168A11A6
:1004700034260A128A11023A03199C29053A0319F3
:10048000A6290F3A0319B029013A0319BA29033AE8
:100490000319CF29013A03190C2A0E2B6430F600F8
:1004A0009130F7008030F8000A128A1501200A12F4
:1004B0008A118316031723080A128A1587210A1244
:1004C0008A1183160317A20013302206031D692A1E
:1004D0006A2A0E2B063083120313A2008316031719
:1004E00023080A168A1134260A128A110E2B0A12C0
:1004F0008A11B6250A128A1183160317A200133037
:100500002206031D842A852A0E2B0630831203132C
:10051000A2008316031723080A168A1134260A122A
:100520008A110E2B0A168A1172240A128A11831656
:100530000317A2000A168A1564250A128A111330BD
:10054000831603172206031DA62AA72A0E2B0630A0
:1005500083120313A2008316031723080A168A11B5
:1005600034260A128A110E2B23080A128A15242611
:100570000A128A1183160317A20013302206031DE4
:10058000C22AC32A0E2B063083120313A20083163D
:10059000031723080A168A1134260A128A110E2B11
:1005A000210883120313A2008316031723080A12DB
:1005B0008A1134230A128A1183160317A2001330FA
:1005C0002206031DE42AE52A0E2B063083120313AC
:1005D000A2008316031723080A168A1134260A126A
:1005E0008A110E2B831603172208073A03194E2A85
:1005F0000F3A0319772A013A0319922A033A031989
:10060000B42A013A0319D02A1A3A03195E29033A87
:1006100003196929013A03192F2A0E2B0430831676
:100620000317A1000A30F6000030F7000A168A15F9
:1006300075250A128A117308F9007208F8000A1663
:100640008A119A210A128A11760883160317A000CC
:1006500064302002031C2D2B2E2B86286330A00033
:1006600086280A128A110C2883120313AB00033068
:100670002206031D3C2B3D2B5B2BD201D101D00167
:1006800083160313C801C901CA01CB01C401C50106
:10069000C601C701C001C101C201C3013F308312BD
:1006A0000313AB000530D500013083160313EC00B3
:1006B00083120313DD005508031D5F2B602B622B93
:1006C0000230B52D37302B06031D672B682B862B88
:1006D0000430520203186D2B6E2B862B5208C83E35
:1006E00084003130831380005208C43EA0002A30B9
:1006F0000A168A15AD250A128A110130FF007F08FB
:1007000083120313D2070530D500A22B2F302B06FE
:10071000031D8B2B8C2BA22B043052020318912B20
:10072000922BA22B5208C83E8400303083138000E5
:100730005208C43EA0002A300A168A15AD250A12B6
:100740008A117D2B04305206031DA72BA82BB42D34
:10075000F2010C300A168A1530260A128A11831209
:100760000313AA012A08263E84002A080A168A15BD
:10077000E0260A128A11831380000130FF007F08EF
:1007800083120313AA0704302A02031CC82BC92BA7
:10079000B22BC830F2000430F3000030F4002630F1
:1007A0000A168A1174220A128A1172087304031D30
:1007B000DA2BDB2B6D2D831203135D080319E12B5C
:1007C000E22B042C0A168A1564250A128A11273096
:1007D000F6009030F7008030F8000A128A150120E8
:1007E0000A128A11F201C4300A168A1530260A123A
:1007F0008A11F2010F300A168A1530260A128A1160
:1008000083120313DD01442C37302B06031D092C02
:100810000A2C282C0430510203180F2C102C282CE1
:100820005108C43E84003130831380005108C43E17
:10083000A0002A300A168A15AD250A128A11013045
:10084000FF007F0883120313D1070530D500442C25
:100850002F302B06031D2D2C2E2C442C043051023E
:100860000318332C342C442C5108C43E84003030FF
:10087000831380005108C43EA0002A300A168A154E
:10088000AD250A128A111F2C04305106031D492C74
:100890004A2CB42DF2010C300A168A1530260A12A1
:1008A0008A11831603136C080319572C582C7A2CC1
:1008B0000A168A1564250A128A115830F6009030FB
:1008C000F7008030F8000A128A1501200A128A11F6
:1008D000F201C4300A168A1530260A128A11F20172
:1008E0000F300A168A1530260A128A11831603134E
:1008F000EC01BC2C3730831203132B06031D812C13
:10090000822CA02C043050020318872C882CA02C99
:100910005008C03E84003130831380005008C43E2C
:10092000A0002A300A168A15AD250A128A11013054
:10093000FF007F0883120313D0070530D500BC2CBD
:100940002F302B06031DA52CA62CBC2C04305002E6
:100950000318AB2CAC2CBC2C5008C03E84003030AB
:10096000831380005008C43EA0002A300A168A155E
:10097000AD250A128A11972C043083125006031DEC
:10098000C22CC32CB42DC030F2000430F300003070
:10099000F400C4300A168A1174220A128A117208ED
:1009A0007304031DD42CD52C112D0A168A15642529
:1009B0000A128A11F2010C300A168A1530260A1220
:1009C0008A11C430F5000030F60000300A168A158E
:1009D00036270A128A119C30F6009030F7008230D8
:1009E000F8000A128A1501200A128A112A30F6002C
:1009F0009130F700C230F8000A128A1501200A125D
:100A00008A11333083120313A500BB30A400DF30FA
:100A1000A300A30B092DA40B092DA50B092D133041
:100A2000B52D0A168A1564250A128A11F2010C30B6
:100A30000A168A1530260A128A113F30F6009130C4
:100A4000F7008030F8000A128A1501200A128A1174
:100A5000DE30F6009030F700C030F8000A128A1538
:100A600001200A128A11273083120313A5000D30CA
:100A7000A4002530A300A30B3B2DA40B3B2DA50BFD
:100A80003B2D422D9C30F6009030F7008030F8006E
:100A90000A128A1501200A128A111230F6009130CA
:100AA000F700C030F8000A128A1501200A128A11D4
:100AB000273083120313A5000D30A4002530A300B6
:100AC000A30B602DA40B602DA50B602D672D0A16BE
:100AD0008A1564250A128A110F2D0A168A156425B3
:100AE0000A128A11F2010C300A168A1530260A12EF
:100AF0008A119630F6009030F7008030F8000A1224
:100B00008A1501200A128A11273083120313A500C7
:100B10000D30A4002530A300A30B8C2DA40B8C2D2D
:100B2000A50B8C2D932D7830F6009030F700C23055
:100B3000F8000A128A1501200A128A11273083123E
:100B40000313A5000D30A4002530A300A30BA62D90
:100B5000A40BA62DA50BA62DAD2D0A168A1564256E
:100B60000A128A111130B52D0B3008000030F30045
:100B70009030F4000A168A1594260A128A110B3056
:100B800083120313AE000030AF000A168A11162735
:100B90000A128A11831203132E08C2002F08C30001
:100BA0001430AE000030AF000A168A1116270A1260
:100BB0008A11831203132E08C4002F08C500C00138
:100BC0000A30F20040080A168A15C2250A128A1154
:100BD000053E83120313BF00C10141084207BC0058
:100BE0000030031801304307BD003C088400831720
:100BF0003D1C831341083F070A168A15E0260A1296
:100C00008A1180000130FF007F0883120313C1079F
:100C10000A304102031C0D2E0E2EED2D42080B3E14
:100C2000BC0043080318013E003EBD003C088400A0
:100C300083173D1C83138001440884008317451CDF
:100C400083134008303E80004408013EBC00450844
:100C50000318013E003EBD003C08840083173D1C84
:100C60008313203080004408023EBC00450803186E
:100C7000013E003EBD003C08840083173D1C8313E9
:100C8000203080004408033EF20045080318013E6E
:100C9000003EF3004208F4004308F5000230F6007D
:100CA0000030F7000A168A11C4220A128A11831230
:100CB00003134408053EBC0045080318013E003EEE
:100CC000BD003C08840083173D1C83133A3080002C
:100CD0004408063EF20045080318013E003EF300BA
:100CE0004208023EBC0043080318013E003EBD001E
:100CF0003C08F4003D08F5000230F6000030F70033
:100D00000A168A11C4220A128A1183120313440894
:100D1000083EBC0045080318013E003EBD003C08EB
:100D2000840083173D1C83133A3080004408093E39
:100D3000F20045080318013E003EF3004208043E5D
:100D4000BC0043080318013E003EBD003C08F4000F
:100D50003D08F5000230F6000030F7000A168A114F
:100D6000C4220A128A118312031344080B3EBC00EA
:100D700045080318013E003EBD003C08840083176F
:100D80003D1C83132030800044080C3EBC00450805
:100D90000318013E003EBD003C08840083173D1C43
:100DA00083132030800044080D3EF20045080318EC
:100DB000013E003EF3004208063EBC004308031813
:100DC000013E003EBD003C08F4003D08F500023045
:100DD000F6000030F7000A168A11C4220A128A119E
:100DE0008312031344080F3EBC0045080318013E5C
:100DF000003EBD003C08840083173D1C8313203057
:100E000080004408103EBC0045080318013E003E27
:100E1000BD003C08840083173D1C831320308000F4
:100E20004408113EF20045080318013E003EF3005D
:100E30004208083EBC0043080318013E003EBD00C6
:100E40003C08F4003D08F5000230F6000030F700E1
:100E50000A168A11C4220A128A1183120313440843
:100E6000133EBC0045080318013E003EBD003C088F
:100E7000840083173D1C831380014408F300450858
:100E8000F4000A168A1594260A128A117130F300AA
:100E90009130F4000A168A1594260A128A1101303C
:100EA000FF007F0883120313C0070A304002031CAF
:100EB0005A2F5B2FE02D4208F2004308F3000A127C
:100EC0008A1598200A128A11B530F2000030F3001A
:100ED0000A128A1598200A128A118730F60090307B
:100EE000F7008030F8000A128A1501200A128A11D0
:100EF0003830F6009030F700C030F8000A128A153A
:100F000001200A128A11273083120313BE000D300C
:100F1000BD002530BC00BC0B8B2FBD0B8B2FBE0B37
:100F20008B2F922F0A168A1564250A128A11133004
:100F30000800F701F31F9D2F9E2FA52FF209F3093B
:100F4000F20A0319F30AF701F70AF51FA82FA92FD0
:100F5000B22FF409F509F40A0319F50A0130FF006C
:100F60007F08F706F801F901720873040319B92F15
:100F7000BA2FF12FF601F60AC82F01300310F20D37
:100F8000F30DFF3E031DBE2F0130FF007F08F60763
:100F9000F31FCB2FCC2FBD2F01300310F80DF90D0F
:100FA000FF3E031DCD2F73087502031DD92F720854
:100FB0007402031CDC2FDD2FE42F7208F402730887
:100FC000031CF503F502781401300310F30CF20C46
:100FD000FF3E031DE52F0130F602031DF02FF12F18
:100FE000CC2F77080319F52FF62FFB2FF809F909F5
:100FF000F80A0319F90A7908F3007808F2000800E2
:101000000134F20178080A168A1530260A128A1568
:101010001F28F201F20A7708FF00760884000A16FA
:101020008A1500200A128A150A168A1530260A1215
:101030008A150130F6070318F70A0030F70777081A
:1010400083120313FF00760884000A168A15002015
:101050000A128A15003A031D2E282F280928080095
:10106000003083120313A4000030A3000030A2005C
:101070000030A10075087404730472040319412838
:1010800042288F28A501A50A52280130A00003108C
:10109000F20DF30DF40DF50DA00B47280130FF0004
:1010A0007F08A507F51F5528562845280130A000C0
:1010B0000310A10DA20DA30DA40DA00B58287508B7
:1010C0007902031D6D2874087802031D6D287308CA
:1010D0007702031D6D2872087602031C70287128A0
:1010E00080287208F6027308031C730FF702740855
:1010F000031C740FF8027508031C750FF902211404
:1011000001300310F50CF40CF30CF20CFF3E031D40
:1011100081280130A502031D8E288F285628240817
:10112000F5002308F4002208F3002108F20008006B
:10113000720883120313A0007308A10072087304DD
:10114000031DA328A428A52886292008FE3EA20066
:1011500021080318013EFF3EA3004A084B0403196F
:10116000B228B3287529220884008317231C83130F
:101170000008F400840A0008F50074082007F6004F
:1011800075080318750A2107F7004B087706031D39
:10119000CB284A087606031DCE28CF281B294A08EB
:1011A000023EF4004B080318013E003EF5007408AF
:1011B00084008317751C83130008F600840A000856
:1011C000F7002208023EF80023080318013E003E03
:1011D000F900780884008317791C8313760880004F
:1011E0007708840A800084034A08840083174B1C14
:1011F00083130008F400840A0008F5007408023E16
:10120000F60075080318013E003EF700220884002E
:101210008317231C831376088007840F00080318A4
:10122000000AFF0077087F07800084032208CA00B5
:101230002308CB0086294A08840083174B1C83139C
:101240000008F400840A0008F50074084A07F60054
:1012500075080318750A4B07F7007608023EF80078
:1012600077080318013E003EF90023087906031DA4
:101270003B2922087806031D3E293F2962292208BE
:1012800084008317231C83130008F400840A0008D9
:10129000F5007408023EF60075080318013E003E92
:1012A000F7004A08840083174B1C831376088007D5
:1012B000840F00080318000AFF0077087F078000EA
:1012C000840386292208023EF40023080318013E05
:1012D000003EF500740884008317751C83134A08C8
:1012E0008000840A4B08800016292208023EF40080
:1012F00023080318013E003EF5007408840083179C
:10130000751C83138001840A80011629080083124A
:101310000313A40037302406031D8F2990299B292D
:101320007A08031D9429952998290930FA00C829BB
:101330000130FA02C8292F302406031DA029A12953
:10134000B8290130FF007F08FA070A30F2000030A8
:10135000F3007A08A200A3012208F4002308F50094
:101360000A168A1119240A128A157208FA00C82965
:101370002A302406031DBD29BE29C0291330CE2AD8
:101380002B302406031DC529C629C8291130CE2AB1
:101390008A3083120313A0007A08303E0A168A1599
:1013A000AD250A128A15C23083120313A0000A3039
:1013B000F2007A080A168A15C2250A128A15053E15
:1013C0000A168A15E0260A128A150A168A15AD250C
:1013D0000A128A15C33083120313A0000A30F200E8
:1013E0007A080A168A15C2250A128A15063E0A16B6
:1013F0008A15E0260A128A150A168A15AD250A12E0
:101400008A15C43083120313A0003A300A168A15D5
:10141000AD250A128A15C53083120313A0000A30C5
:10142000F2007A080A168A15C2250A128A15073EA2
:101430000A168A15E0260A128A150A168A15AD259B
:101440000A128A15C63083120313A0000A30F20074
:101450007A080A168A15C2250A128A15083E0A1643
:101460008A15E0260A128A150A168A15AD250A126F
:101470008A15C73083120313A0003A300A168A1562
:10148000AD250A128A15C83083120313A0000A3052
:10149000F2007A080A168A15C2250A128A15093E30
:1014A0000A168A15E0260A128A150A168A15AD252B
:1014B0000A128A15C93083120313A0000A30F20001
:1014C0007A080A168A15C2250A128A150A3E0A16D1
:1014D0008A15E0260A128A150A168A15AD250A12FF
:1014E0008A15CB3083120313A0000A30F2007A0869
:1014F0000A168A15C2250A128A150B3E0A168A1583
:10150000E0260A128A150A168A15AD250A128A15CE
:10151000CC3083120313A0000A30F2007A080A16B6
:101520008A15C2250A128A150C3E0A168A15E0266B
:101530000A128A150A168A15AD250A128A15CE30A6
:1015400083120313A0000A30F2007A080A168A15E3
:10155000C2250A128A150D3E0A168A15E0260A12BD
:101560008A150A168A15AD250A128A15CF308312FC
:101570000313A0000A30F2007A080A168A15C22561
:101580000A128A150E3E0A168A15E0260A128A15D4
:101590000A168A15AD250A128A150730080083122B
:1015A0000313AC01AD01A201A301A601A7014A08E2
:1015B0004B04031DDC2ADD2AE02AF201F301542C3E
:1015C0004A08AA004B08AB00992B2A08840083170D
:1015D0002B1C83130008F400840A0008F50073082C
:1015E0007506031DF52A72087406031DF82AF92AE8
:1015F000412B260827040319FE2AFF2A252B2A0837
:10160000023EF4002B080318013E003EF50074086A
:1016100084008317751C83130008F600840A0008F1
:10162000F7002608023EF80027080318013E003E96
:10163000F900780884008317791C831376088000EA
:101640007708840A80008403382B2A08023EF400BD
:101650002B080318013E003EF50074088400831730
:10166000751C83130008CA00840A00088403CB0099
:101670002A08023EF2002B080318013E003EF30048
:10168000542C2A08840083172B1C83130008F400B1
:10169000840A0008F50075087302031D512B7408B5
:1016A00072020318542B552B822B2C082D0403197E
:1016B0005A2B5B2B7A2B2C08840083172D1C831349
:1016C0000008F400840A0008F5002A088400831743
:1016D0002B1C83130008F600840A0008F700750825
:1016E0007702031D752B74087602031C782B792B67
:1016F0007A2B822B2A08AC002B08AD002608A2000A
:101700002708A3002A08A6002B08A7002A08023EE3
:10171000F4002B080318013E003EF5007408840015
:101720008317751C83130008AA00840A0008840329
:10173000AB002A082B04031D9E2B9F2BE52A2C08A7
:101740002D040319A42BA52BDD2A2C08023EF4003E
:101750002D080318013E003EF5007408840083172D
:10176000751C83130008A800840A00088403A900DC
:101770002C08840083172D1C83130008F400840AAE
:101780000008F50072087402F6007308031C730A5F
:101790007502F70000307702053003197602031C4A
:1017A000D22BD32B2B2C2C08840083172D1C8313B6
:1017B0000008F400840A0008F50072087402F600BC
:1017C0007308031C730A7502F7007608FE3EA0003A
:1017D00077080318013EFF3EA1002C088400831700
:1017E0002D1C831372088000840A730880002C0863
:1017F000840083172D1C831300082C07F4002D0888
:101800000318013EF5007408023EA4007508031891
:10181000013E003EA500240884008317251C831385
:1018200020088000840A210880002408023EF40079
:1018300025080318013E003EF50074088400831754
:10184000751C831328088000840A29088000240856
:10185000A8002508A9002D084B06031D312C2C08D3
:101860004A06031D342C352C3A2C2808CA002908B6
:10187000CB004C2C2208023EF40023080318013E42
:10188000003EF500740884008317751C8313280834
:101890008000840A290880002C08023EF2002D08EE
:1018A0000318013E003EF300080083120313AA0050
:1018B00003302206031D5D2C5E2C712CD40183168F
:1018C0000313CC01CD01CE01CF01033083120313EA
:1018D000AB003F30AA00CE01CF01CC01CD010530D5
:1018E000D5005508031D752C762C782C0230232E3C
:1018F00037302A06031D7D2C7E2C9C2C043054028C
:101900000318832C842C9C2C5408CC3E840031304A
:10191000831380005408C43EA0002A300A168A159A
:10192000AD250A128A150130FF007F0883120313C8
:10193000D4070530D500B82C2F302A06031DA12C62
:10194000A22CB82C043054020318A72CA82CB82CB5
:101950005408CC3E84003030831380005408C43EC9
:10196000A0002A300A168A15AD250A128A15932C72
:1019700004305406031DBD2CBE2C222EAC012C08B5
:10198000263E84002C080A168A15E0260A128A15BB
:10199000831380000130FF007F0883120313AC071C
:1019A00004302C02031CD52CD62CBF2CCC30F200DA
:1019B0000430F3000030F40026300A168A11742235
:1019C0000A128A1572087304031DE72CE82C152DE2
:1019D0000A168A1564250A128A15F2010C300A16B5
:1019E0008A1530260A128A15C230F6009030F700A8
:1019F0008230F8000A128A1501200A128A1527304F
:101A000083120313A5000D30A4002530A300A30BFF
:101A1000072DA40B072DA50B072D0E2D0A168A15D1
:101A200064250A128A150530232E01308312031310
:101A3000AB022B08031D1D2D1E2DC42D0A168A1561
:101A400064250A128A15F2010C300A168A1530260E
:101A50000A128A154830F6009030F7008030F800FE
:101A60000A128A1501200A128A155B30F60091309D
:101A7000F700C030F8000A128A1501200A128A15F0
:101A8000CB3083120313A0003A300A168A15AD2515
:101A90000A128A153B3083120313CE000030CF00A8
:101AA0000E30CC000030CD00B72DC930A0000A3078
:101AB000F2000030F3004D08F5004C08F4000A1263
:101AC0008A1199270A128A157208303E0A168A1559
:101AD000AD250A128A15CA3083120313A0000A30FA
:101AE000F2000030F3004D08F5004C08F4000A162F
:101AF0008A1119240A128A157208303E0A168A15AC
:101B0000AD250A128A15CC3083120313A0000A30C7
:101B1000F2000030F3004F08F5004E08F4000A12FE
:101B20008A1199270A128A157208303E0A168A15F8
:101B3000AD250A128A15CD3083120313A0000A3096
:101B4000F2000030F3004F08F5004E08F4000A16CA
:101B50008A1119240A128A157208303E0A168A154B
:101B6000AD250A128A15053083120313D5004C08DF
:101B70004D04031DBC2DBD2D552D4E084F04031DD6
:101B8000C22DC32D552DFF2D0A168A1564250A1264
:101B90008A15F2010C300A168A1530260A128A15A7
:101BA0009630F6009030F7008030F8000A128A155F
:101BB00001200A128A15C03083120313A0002B08DB
:101BC000303E0A168A15AD250A128A15D030F60065
:101BD0009030F700C230F8000A128A1501200A126C
:101BE0008A15333083120313A500BB30A400DF3005
:101BF000A300A30BF92DA40BF92DA50BF92D0A16A3
:101C00008A1564250A128A15A530F6009030F7006F
:101C10008130F8000A128A1501200A128A15F20191
:101C2000C4300A168A1530260A128A15F2010F30BE
:101C30000A168A1530260A128A1583120313D40154
:101C40000530D5001230080083120313A30037308B
:101C50002306031D2C2E2D2E562F422F7B08563E79
:101C60008400393083130006031D372E382E3E2E94
:101C70007B08563E840030308000492E7B08563E5B
:101C800084000008013EFF007B08563E84007F0868
:101C90008000C930A0007B08563E840000080A1668
:101CA0008A15AD250A128A15F20110300A168A1516
:101CB00030260A128A15FE2F7B08563E84003530E6
:101CC00083130006031D652E662E6C2E7B08563E80
:101CD000840030308000772E7B08563E8400000858
:101CE000013EFF007B08563E84007F088000C8301C
:101CF000A0007B08563E840000080A168A15AD2510
:101D00000A128A15F20110300A168A1530260A12B4
:101D10008A15FE2F7B08563E840039308313000657
:101D2000031D932E942E9A2E7B08563E840030304D
:101D30008000A52E7B08563E84000008013EFF006F
:101D40007B08563E84007F088000C630A0007B08D8
:101D5000563E840000080A168A15AD250A128A1517
:101D6000F20110300A168A1530260A128A15FE2F43
:101D70007B08563E8400353083130006031DC12EB8
:101D8000C22EC82E7B08563E840030308000D32EF1
:101D90007B08563E84000008013EFF007B08563E4B
:101DA00084007F088000C530A0007B08563E840078
:101DB00000080A168A15AD250A128A15F20110309C
:101DC0000A168A1530260A128A15FE2F7B08563EFF
:101DD0008400393083130006031DEF2EF02EF62EFB
:101DE0007B08563E840030308000012F7B08563E31
:101DF00084000008013EFF007B08563E84007F08F7
:101E00008000C330A0007B08563E840000080A16FC
:101E10008A15AD250A128A15F20110300A168A15A4
:101E200030260A128A15FE2F7B08563E8400323077
:101E300083130006031D1D2F1E2F242F7B08563EE3
:101E40008400303080002F2F7B08563E840000082D
:101E5000013EFF007B08563E84007F088000C230B0
:101E6000A0007B08563E840000080A168A15AD259E
:101E70000A128A15F20110300A168A1530260A1243
:101E80008A15FE2F7B08003A0319142F013A031913
:101E9000E62E033A0319B82E013A03198A2E073A9F
:101EA00003195C2E013A03192E2EFE2F2F30230624
:101EB000031D5B2F5C2FAB2F7B08031D602F612F51
:101EC000642F0530FB00972F0130FB02972FF201A2
:101ED000C2300A168A1530260A128A15FE2FF20120
:101EE000C3300A168A1530260A128A15FE2FF2010F
:101EF000C5300A168A1530260A128A15FE2FF201FD
:101F0000C6300A168A1530260A128A15FE2FF201EB
:101F1000C8300A168A1530260A128A15FE2FF201D9
:101F2000C9300A168A1530260A128A15FE2F7B0838
:101F3000003A0319672F013A03196F2F033A031967
:101F4000772F013A03197F2F073A0319872F013A98
:101F500003198F2FFE2F1F302306031DB02FB12F23
:101F6000FE2F0A168A1564250A128A158312031396
:101F70005A080F39A20004300310A20DFF3E031DC2
:101F8000BC2F5B080F392204F30000300A168A15B3
:101F900012260A128A158312031358080F39A20059
:101FA00004300310A20DFF3E031DD12F59080F3935
:101FB0002204F30001300A168A1512260A128A1525
:101FC0008312031356080F39A20004300310A20D28
:101FD000FF3E031DE62F57080F392204F30002309D
:101FE0000A168A1512260A128A15F2010C300A16F0
:101FF0008A1530260A128A151330FF2F0A3008007E
:102000004E346F34203420342034543449344D3429
:1020100045342034203420342034453420342034D6
:102020002034533450340A340D34003420342034F6
:10203000543449344D344534203420342034203451
:102040002034453420342034533450340034453463
:102050006E3474346534723420344E3465347734DD
:10206000203450346134733473347734643400343E
:102070005334753463346334653473347334663481
:1020800075346C346C3479342E342E342E34003460
:1020900059346F34753420346134723465342034EB
:1020A00062346C346F3463346B34653464340034BC
:1020B000523465342D3465346E347434653472347E
:1020C00020345034613473347334773464340034DE
:1020D00043346C3465346134723469346E3467343B
:1020E00020346C346F3467342E342E342E34003464
:1020F0004C346F346734673469346E346734203459
:102100004F34753474342E342E342E3400344C3421
:102110006F346734203444346F3477346E346C3425
:102120006F34613464346534643400345734723449
:102130006F346E3467342034503461347334733404
:1021400077346F3472346434003445346E3474340C
:1021500065347234203450346134733473347734DA
:102160006F347234643400344334683461346E3410
:1021700067346534203470346134733473347734A5
:10218000643400344C346F34673469346E34203432
:1021900073347534633463346534733473340034A6
:1021A00041347434743465346D347034743473343D
:1021B00020346C3465346634743400344E346F34F7
:1021C000743420344D346134743463346834693485
:1021D0006E346734003444346F3477346E346C3486
:1021E0006F346134643420346C346F3467340034B9
:1021F0005334753463346334653473347334663400
:1022000075346C346C34793400345334653474343C
:10221000743469346E3467342034543469346D3422
:10222000653400344E346F347434203443346834AD
:1022300061346E3467346534643400344C346F3444
:102240006734203443346C3465346134723465341B
:10225000643400344334683461346E346734653434
:1022600064342E342E342E34003443346C346534CC
:102270006134723420346C346F3467340034503439
:1022800061347334733477346F3472346434733438
:1022900000345334653474342034743469346D3408
:1022A00065340034563469346534773420346C3402
:1022B0006F346734003477346134693474342034D3
:1022C00066346F3472340034203420344C344F344C
:1022D00047343A34203400343134313431343134F9
:1022E00000340A340A340D340034433420340034CA
:1022F00047343134003447343234003447343334D3
:10230000003447343434003447344E3400344734D6
:04231000523400340F
:10231A008312031312149214FA30831603139200D1
:10232A008C14831203131211080083120313A101E0
:10233A00A201760877040319A329A429DB29A0019D
:10234A00A00AB22901300310F60DF70DFF3E031D56
:10235A00A8290130FF007F08A007F71FB529B62971
:10236A00A72901300310A10DA20DFF3E031DB729B5
:10237A0077087902031DC32976087802031CC62947
:10238A00C729CE297608F8027708031CF903F9024F
:10239A00211401300310F70CF60CFF3E031DCF2960
:1023AA000130A002031DDA29DB29B6292208F70029
:1023BA002108F6000800831203138C1CE529E6297C
:1023CA00202A013083160313AF070318B00A00301E
:1023DA00B007E2302F06043003193006031DF62930
:1023EA00F7291E2AAF01B001FF3083120313CE076B
:1023FA000318CF0AFF30CF07CF1F042A052A172A4E
:10240A003B30CE000030CF00FF30CC070318CD0A96
:10241A00FF30CD07CD1F122A132A172A0E30CC00FF
:10242A000030CD00550803191B2A1C2A1E2A013028
:10243A00D50283128C1071088A00700E8300FE0E7A
:10244A007E0E0900F2007208840083130008F3006C
:10245A00840A0008F4008316031327082804031DBE
:10246A00372A382A3C2A7030A7000130A8000030E9
:10247A0074020430031973020318442A452A492AAC
:10248A000430F3000030F40073082702F5007408E2
:10249A00031C740A2802F600013076021030031970
:1024AA007502031C592A5A2A642A28087602031D2F
:1024BA00602A27087502031C632A642A6B2A0C30D7
:1024CA00AD000030AE00F001F101732A7508A700D3
:1024DA007608A8002708F0002808F1000800F7008D
:1024EA000130F3020030031CF403F402730A031DE3
:1024FA00822A740A031D822A832A942AF201F3018A
:10250A00C32A0130FF007F08F7070130FF007F0868
:10251A00F2070130F3020030031CF403F4027708D7
:10252A0084008313000803199B2A9C2AB52A72087F
:10253A00840000080319A22AA32AB52A730874047E
:10254A000319A82AA92AB52A720884000008F500E6
:10255A0077088400000875060319B42AB52A862A62
:10256A00720884000008F500770884000008F60065
:10257A0075087602F200F301031CF30308007208DF
:10258A00F8007308F900F32A0130F6020030031C40
:10259A00F703F702750883120313A1007408A00059
:1025AA00F40A0319F50A200884008317211C8313EF
:1025BA000008FF007908A3007808A200F80A0319A6
:1025CA00F90A220884008317231C83137F088000DA
:1025DA000008031DF12AF22AF32A062B760877044B
:1025EA00031DF82AF92AC92A062B780884008317BA
:1025FA00791C831380010130F8070318F90A0030A7
:10260A00F9070130F6020030031CF703F702760AD5
:10261A00031D132B770A031D132B142BFA2A080008
:10262A000A168A112D250A168A11C230831203133B
:10263A00A00056080A168A15AD250A168A11C33053
:10264A0083120313A00057080A168A15AD250A1625
:10265A008A11C43083120313A0003A300A168A156D
:10266A00AD250A168A11C53083120313A000580833
:10267A000A168A15AD250A168A11C6308312031363
:10268A00A00059080A168A15AD250A168A11C730FC
:10269A0083120313A0003A300A168A15AD250A16CA
:1026AA008A11C83083120313A0005A080A168A1521
:1026BA00AD250A168A11C93083120313A0005B08DC
:1026CA000A168A15AD250A168A1108008312031301
:1026DA00A5001630F6009030F7008030F8000A1294
:1026EA008A1501200A168A110A168A1115230A1652
:1026FA008A11831203132508F6000130F700CB3044
:10270A00F8000A128A1501200A168A11CE3083129D
:10271A000313A0000A30F2000030F3002208A300DD
:10272A00A4012308F4002408F5000A128A11992743
:10273A000A168A117208303E0A168A15AD250A163B
:10274A008A11CF3083120313A0000A30F20000303E
:10275A00F3002208A300A4012308F4002408F500CA
:10276A000A168A1119240A168A117208303E0A16A4
:10277A008A15AD250A168A110800C330F700CD3034
:10278A00F600F60BC62BF70BC62BF20133300A16EE
:10279A008A1530260A168A111B30F7009E30F60079
:1027AA00F60BD52BF70BD52B0000F20133300A16A6
:1027BA008A1530260A168A11A630F600F60BE32B84
:1027CA000000F20133300A168A1530260A168A11D9
:1027DA00EE2BEF2B0000F20138300A168A1530264C
:1027EA000A168A11A630F600F60BF92B0000F20140
:1027FA0001300A168A1530260A168A110430F700A3
:10280A003D30F600F60B072CF70B072C0C2CF201C7
:10281A000C300A168A1530260A168A11A630F600D6
:10282A00F60B152C00000800F701F51F1D2C1E2CB5
:10283A00252CF409F509F40A0319F50AF701F70A30
:10284A00F31F282C292C2E2CF209F309F20A03195A
:10285A00F30A720873040319332C342C632CF6011F
:10286A00F60A422C01300310F20DF30DFF3E031D50
:10287A00382C0130FF007F08F607F31F452C462C41
:10288A00372C73087502031D4C2C72087402031C42
:10289A004F2C502C562C7208F4027308031CF503B3
:1028AA00F50201300310F30CF20CFF3E031D572C06
:1028BA000130F602031D622C632C462C770803199B
:1028CA00672C682C6D2CF409F509F40A0319F50A2A
:1028DA007508F3007408F200080083120313A401B8
:1028EA000A30F20024080A168A15C2250A168A1125
:1028FA00053E83120313A300A5013030F300250817
:10290A0023070A168A15F4250A168A110130FF00D0
:10291A007F0883120313A5070A302502031C962C8D
:10292A00972C822C0130FF007F08A4070A3024026A
:10293A00031CA02CA12C752C0A168A1564250A16CC
:10294A008A111E30F6009130F7008230F8000A1220
:10295A008A1501200A168A11F830F6009030F7001D
:10296A00C230F8000A128A1501200A168A11333079
:10297A0083120313A200BB30A100DF30A000A00B1A
:10298A00C42CA10BC42CA20BC42C13300800831234
:10299A000313A7000A168A112D250A168A11B530C3
:1029AA00F2000030F3005630F4000030F500063033
:1029BA00F6000030F7000A168A11C4220A168A1194
:1029CA00BB30F2000030F300831203132708F4002F
:1029DA000130F5000230F6000030F7000A168A11BD
:1029EA00C4220A168A110A30F2000030F300831258
:1029FA0003132408A500A6012508F4002608F500FB
:102A0A000A128A1199270A168A117208303E831609
:102A1A000313BD000A30F2000030F30083120313DF
:102A2A002408A500A6012508F4002608F5000A16C0
:102A3A008A1119240A168A117208303E8316031362
:102A4A00BE00BF010A168A15BA260A168A1108009C
:102A5A0002300A168A150B270A168A1183160313DF
:102A6A00A40001300A168A150B270A168A11831642
:102A7A000313A50000300A168A150B270A168A11B5
:102A8A0083160313A6002408F60004300310F60C7C
:102A9A00FF3E031D4B2D76080339303E8312031384
:102AAA00D6008316031324080F39303E831203130A
:102ABA00D700831603132508F60004300310F60C1A
:102ACA00FF3E031D632D76080739303E8312031338
:102ADA00D8008316031325080F39303E83120313D7
:102AEA00D900831603132608F60004300310F60CE7
:102AFA00FF3E031D7B2D76080739303E83120313F0
:102B0A00DA008316031326080F39303E83120313A3
:102B1A00DB00DC010800F3007308031D952D962DD8
:102B2A00102E3F30831203130605F2003730720667
:102B3A00031DA02DA12DB62D013083160313B30753
:102B4A000318B40A0030B4070030340215300319F0
:102B5A003302031CB12DB22D092EB301B4012A3060
:102B6A00332E3F300605F2002F307206031DBE2DAC
:102B7A00BF2DD42D013083160313B1070318B20AEF
:102B8A000030B20700303202153003193102031C3B
:102B9A00CF2DD02D0F2EB101B2012B30332E3F3065
:102BAA000605F2003F307206031DDC2DDD2D0B2ECB
:102BBA000030831603133402153003193302031845
:102BCA00E72DE82DF22D330834040319ED2DEE2DEF
:102BDA00F22DB301B4013730332E003032021530F2
:102BEA00031931020318FA2DFB2D052E3108320480
:102BFA000319002E012E052EB101B2012F30332EFA
:102C0A00B301B401B101B2013F30332E8312060879
:102C1A003F39332E092E3F30831203130605F20083
:102C2A003F30720603191A2E1B2E242E8316031305
:102C3A006B080319212E222E242EEB010B2E3F3076
:102C4A0083120605F2003F307206031D2D2E2E2E2A
:102C5A00092E83160313EB01EB0A092E08008312CF
:102C6A000313A500121506302206031D3D2E3E2E23
:102C7A00482E0A168A1564250A168A118312031326
:102C8A00D3010530D5005508031D4C2E4D2E502E6C
:102C9A0012110230152F37302506031D552E562ED8
:102CAA00672E530803195A2E5B2E672E0A168A15A9
:102CBA0064250A168A11013083120313D3020530E0
:102CCA00D500A92E2F302506031D6C2E6D2E7F2EC2
:102CDA00043053020318722E732E7F2E0A168A1599
:102CEA0064250A168A110130FF007F088312031334
:102CFA00D307642E2A302506031D842E852EA22E84
:102D0A001211912E0730152F0830152F0930152F63
:102D1A000A30152F0B30152F5308003A0319872E46
:102D2A00013A0319892E033A03198B2E013A031922
:102D3A008D2E073A03198F2EA92E2B302506031D37
:102D4A00A72EA82EA92E4D2E04305306031DAE2EF3
:102D5A00AF2EE22EC030A0002A300A168A15AD2501
:102D6A000A168A11831203135308A3002307DA3EB3
:102D7A00840083130008F600840A00088403F7001D
:102D8A008230F8000A128A1501200A168A11831263
:102D9A0003135308A3002307DC3E840083130008AF
:102DAA00F600840A00088403F700C230F8000A1209
:102DBA008A1501200A168A11142F8030A0002A30A1
:102DCA000A168A15AD250A168A11831203135308A7
:102DDA00A3002307DC3E840083130008F600840A5C
:102DEA0000088403F7008230F8000A128A150120CD
:102DFA000A168A11831203135308A3002307DE3E1F
:102E0A00840083130008F600840A00088403F7008C
:102E1A00C230F8000A128A1501200A168A111330E4
:102E2A00080083120313B601B7012E082F04031DED
:102E3A001F2F202F262F0130AE070318AF0A0030AC
:102E4A00AF0700302F02023003192E0203182E2F6B
:102E5A002F2F342F0230AE000030AF004D2F2F0835
:102E6A00B1002E08B000B009B109003031020230B9
:102E7A00031930020318422F432F4D2F0C308316AB
:102E8A000313AD000030AE008312AE01AF01FF2F75
:102E9A002F08F3002E08F2000A128A15CF220A160A
:102EAA008A11720883120313B8007308B90038082C
:102EBA003904031D612F622FFA2F831603132B087F
:102ECA00290283120313B000831603132C08031C70
:102EDA002C0A2A0283120313B1002F083102031DA0
:102EEA00782F2E08300203187B2F7C2FC22F2E0832
:102EFA00023EB2002F080318013E003EB3003230F2
:102F0A000A168A1127220A168A11700883120313D5
:102F1A00BA007108BB003A083B04031D952F962F8F
:102F2A00972F492F831603132A08831203133B068C
:102F3A00031DA52F831603132908831203133A06C8
:102F4A000319A82FA92FB32F3A0883160313AB002E
:102F5A00831203133B0883160313AC00831232084F
:102F6A003A0783160313A9008312031333080318BD
:102F7A00330A3B0783160313AA00831603132B088D
:102F8A0083120313B800831603132C088312031346
:102F9A00B9003808B4003908B5003408840083172A
:102FAA00351C83132E088000840A2F088000023003
:102FBA00B4070318B50A0030B5073408B800350855
:102FCA00B9002E08023EB0002F080318013E003E49
:102FDA00B100300883160313AB070318AC0A831237
:102FEA000313310883160313AC0783123808AE00A3
:102FFA003908AF000800FF1B0A2883137F188317BC
:10300A000008840A0319FF0A08007F087F398A002A
:0A301A000408840A0319FF0A82006B
:103A08008316031306083F3886000800831603133D
:103A18009F17831203131F14080064008001840A8F
:103A28000406031900340406122D0A168A155725B0
:103A38000A168A1583160313111408000A168A1524
:103A480057250A168A1583160313111508000A1636
:103A58008A1522250A168A150A168A1519250A169C
:103A68008A150800F2000A168A1557250A168A15BB
:103A780072088312031393000800F200720883127D
:103A8800031399000C1E492D4A2D462D0C120800CF
:103A9800831603138801091189100A168A11C22393
:103AA8000A168A1508008316031314195C2D5D2D58
:103AB800572D11081F39031D622D632D572D08003E
:103AC800F20101300A168A1530260A168A150430C2
:103AD800F7003D30F600F60B6F2DF70B6F2D742DA8
:103AE8000800831203131F151F197B2D7C2D782DB9
:103AF8001E08F500831603131E08F4007508F3006A
:103B08007408F200080000300A168A150B270A16F6
:103B18008A15F60076087F39F6007608F30000303B
:103B28000A168A1512260A168A1508007E088A00BF
:103B38007F0882000A168A159A250A168A158000B7
:103B4800840A04087D0603190034FF0A0319FE0AD3
:103B58009E2D83120313A100F20120080A168A156C
:103B680030260A168A15F201F20A83120313210875
:103B78000A168A1530260A168A150800F400F30179
:103B8800741CC72DC82DCC2D7208FF007F08F307C1
:103B98000310F20D0310F40C7408031DD42DD52D59
:103BA800C42D7308080084349134873491347834F0
:103BB80091347B3491347E3491348134913452344D
:103BC8009134EB3490343534913449349134B434ED
:103BD80090344F344E340034FF34FF340134013410
:103BE800F4000A168A1519250A168A15A0300A162D
:103BF8008A1536250A168A1574080A168A1536256E
:103C08000A168A1573080A168A1536250A168A1599
:103C18000A168A1522250A168A150800F4000A16BB
:103C28008A1519250A168A15D0300A168A153625D6
:103C38000A168A1574080A168A1536250A168A1568
:103C480073080A168A1536250A168A150A168A1559
:103C580022250A168A150800F5007218342E382E07
:103C68008312031309153B2E8312031309117508D8
:103C780088008914A630F300F30B402E000083124D
:103C8800031389101B30F4009E30F300F30B4A2E07
:103C9800F40B4A2E00000800F2000A168A15572570
:103CA8000A168A158316031391150A168A155725BD
:103CB8000A168A15831203131308F3007203031DEF
:103CC800662E672E6B2E8316031391166E2E83169F
:103CD80003139112111673080800F7007708F6000D
:103CE8007308F5007208F400F20A0319F30A75085C
:103CF80083120313FF00740884000A168A15002033
:103D08000A168A15FF00760884000130F6077F0836
:103D1800831780000008031D922E932E742E08002E
:103D2800A92E7408FF00730884000A168A1500205B
:103D38000A168A150A168A1541250A168A150130A7
:103D4800F3070318F40A0030F40774088312031306
:103D5800FF00730884000A168A1500200A168A15BF
:103D6800003A031DB82EB92E952E0800013083168F
:103D78000313E9070318EA0A0030EA070A3069065C
:103D88006A04031DC82EC92ECB2EE901EA010A30A8
:103D9800F20069080A168A15C2250A168A15053E10
:103DA800F800B530F5000030F60078080A168A15D4
:103DB80036270A168A150800F4000A168A151925E6
:103DC8000A168A15A0300A168A1536250A168A1583
:103DD80074080A168A1536250A168A150A168A15C7
:103DE8002B250A168A15A1300A168A1536250A16B1
:103DF8008A1500300A168A1550260A168A15F50003
:103E08000A168A1522250A168A1575080800F4006C
:103E18000A168A1519250A168A15D0300A168A151F
:103E280036250A168A1574080A168A1536250A16BA
:103E38008A150A168A152B250A168A15D1300A16EC
:103E48008A1536250A168A1500300A168A1550264C
:103E58000A168A15F5000A168A1522250A168A15E1
:103E680075080800F700522F7608FF0075088400CF
:103E78000A168A1500200A168A15F30077080A160A
:103E88008A15F4250A168A150130F5070318F60A6B
:103E98000030F6070130FF007F08F7077608831225
:103EA8000313FF00750884000A168A1500200A16F5
:103EB8008A15003A031D612F622F382F08008312DC
:103EC8000313981718162608AA002708AB00280815
:103ED800AC002908AD0004300310AA0DAB0DAC0DE1
:103EE800AD0DFF3E031D702F2D08F5002C08F400C2
:103EF8002B08F3002A08F2000130F9003130F800ED
:103F08002D30F7000030F6000A128A1530200A1604
:103F18008A157208FF3E8316031399008C16080051
:103F28008312031394152608AA002708AB00280853
:103F3800AC002908AD0002300310AA0DAB0DAC0D82
:103F4800AD0DFF3E031DA02F2D08F5002C08F40031
:103F58002B08F3002A08F2000130F9003130F8008C
:103F68002D30F7000030F6000A128A1530200A16A4
:103F78008A157208FF3E83160313930083120313F6
:103F880094160800003083120313A9000130A8001A
:103F98008630A700A030A6000A168A1594270A16AC
:103FA8008A150A168A1587250A168A150A168A1581
:103FB8004C250A168A150A168A150A250A168A151C
:103FC8000A168A1504250A168A150A168A118D21D9
:103FD8000A168A15003083120313A9000030A800BE
:103FE8002530A7008030A6000A168A1563270A160E
:083FF8008A158B170B17080056
:02400E00FB3F76
:00000001FF
